:100000000C9463000C948B000C948B000C945C0A91
:100010000C945C0A0C945C0A0C948B000C948B007E
:100020000C948B000C948B000C948B000C94D40AD1
:100030000C948B000C948B000C948B000C948B0014
:100040000C94F3080C948B000C94C1080C949B083E
:100050000C948B000C948B000C948B000C948B00F4
:100060000C943D090C948B00000000002400270034
:100070002A0000000008000201000003040700003D
:1000800000000000000000000000230026002900FE
:1000900000000000250028002B00040404040404D0
:1000A0000404020202020202030303030303010227
:1000B00004081020408001020408102001020408F6
:1000C0001020EB0AB21811241FBECFEFD8E0DEBF1C
:1000D000CDBF12E0A0E0B1E0ECE8F2E302C0059091
:1000E0000D92A031B107D9F725E0A0E1B2E001C03F
:1000F0001D92AC30B207E1F710E0C2E6D0E004C0D8
:100100002197FE010E942E19C136D107C9F70E941E
:10011000200C0C9439190C94000096E0899FD001B2
:100120001124A05ABB4F90967C936E935F9791E0F9
:1001300091969C939197E091CD04F091CE0490918B
:10014000CC04992339F0309751F0811108C0809187
:100150007C040994309719F05C968C91FACF08953D
:1001600008950895DC01ED91FC910190F081E02D5E
:100170000994AF92BF92CF92DF92EF92FF920F93CA
:100180001F93CF93DF936C017B018B01040F151F2D
:10019000EB015E01AE18BF08C017D10759F0699195
:1001A000D601ED91FC910190F081E02DC6010995F9
:1001B000892B79F7C501DF91CF911F910F91FF90A6
:1001C000EF90DF90CF90BF90AF900895FC01538DDA
:1001D000448D252F30E0842F90E0821B930B541721
:1001E00010F0CF96089501970895FC01918D828DAE
:1001F000981761F0A28DAE0FBF2FB11D5D968C9147
:10020000928D9F5F9F73928F90E008958FEF9FEF85
:100210000895FC01918D828D981731F0828DE80F41
:10022000F11D858D90E008958FEF9FEF0895FC01FB
:10023000918D228D892F90E0805C9F4F821B9109C8
:100240008F739927089587EB93E00E94170121E0AF
:10025000892B09F420E0822F089580E090E0892B1B
:1002600029F00E94230181110C9400000895FC01E3
:10027000A48DA80FB92FB11DA35ABF4F2C91848D07
:1002800090E001968F739927848FA689B7892C9364
:10029000A089B1898C91837080648C93938D848DB7
:1002A000981306C00288F389E02D80818F7D8083BA
:1002B0000895EF92FF920F931F93CF93DF93EC017A
:1002C00081E0888F9B8D8C8D98131AC0E889F989FD
:1002D000808185FF15C09FB7F894EE89FF89608300
:1002E000E889F98980818370806480839FBF81E081
:1002F00090E0DF91CF911F910F91FF90EF900895C3
:10030000F62E0B8D10E00F5F1F4F0F731127E02E9D
:100310008C8D8E110CC00FB607FCFACFE889F989D5
:10032000808185FFF5CFCE010E943701F1CFEB8DA3
:10033000EC0FFD2FF11DE35AFF4FF0829FB7F894A9
:100340000B8FEA89FB8980818062CFCFCF93DF93C7
:10035000EC01888D8823B9F0AA89BB89E889F989DD
:100360008C9185FD03C0808186FD0DC00FB607FC12
:10037000F7CF8C9185FFF2CF808185FFEDCFCE0145
:100380000E943701E9CFDF91CF910895833081F04A
:1003900028F4813099F08230A9F008958730A9F0CF
:1003A0008830C9F08430B1F4809180008F7D03C023
:1003B000809180008F7780938000089584B58F7737
:1003C00084BD089584B58F7DFBCF8091B0008F7779
:1003D0008093B00008958091B0008F7DF9CFCF93C6
:1003E000DF93282F30E0F901EE58FF4F8491F90197
:1003F000E255FF4FD491F901E656FF4FC491CC234B
:10040000A1F081110E94C601EC2FF0E0EE0FFF1F5A
:10041000EA57FF4FA591B491EC91ED2381E090E074
:1004200009F480E0DF91CF91089580E090E0FACF69
:10043000862F0C94EF011F93CF93DF93282F30E08A
:10044000F901EE58FF4F8491F901E255FF4FD49125
:10045000F901E656FF4FC491CC23A9F0162F811164
:100460000E94C601EC2FF0E0EE0FFF1FE057FF4F98
:10047000A591B4918FB7F894EC91111108C0D09563
:10048000DE23DC938FBFDF91CF911F910895DE2B88
:10049000F8CF862F642F0C941B02CF93DF9390E04C
:1004A000FC01E255FF4F249186569F4FFC01849139
:1004B0008823C9F090E0880F991FFC01E859FF4F8D
:1004C000A591B491FC01E057FF4FC591D491611102
:1004D0000DC09FB7F8948C91209582238C938881CE
:1004E000282328839FBFDF91CF910895623051F474
:1004F0009FB7F8943C91822F809583238C93E88159
:100500002E2BEFCF8FB7F894EC912E2B2C938FBF1F
:10051000EACF862F642F0C944D02862F642F0C9403
:100520004D023FB7F8948091B9029091BA02A09120
:10053000BB02B091BC0226B5A89B05C02F3F19F0A5
:100540000196A11DB11D3FBFBA2FA92F982F882753
:10055000BC01CD01620F711D811D911D42E0660F2E
:10056000771F881F991F4A95D1F708958F929F9200
:10057000AF92BF92CF92DF92EF92FF924B015C015C
:100580000E9491026B017C010E9491026C197D090D
:100590008E099F09683E734081059105A8F321E00B
:1005A000821A9108A108B10888EEC80E83E0D81E0F
:1005B000E11CF11C81149104A104B10429F7FF90FE
:1005C000EF90DF90CF90BF90AF909F908F90089565
:1005D0002FB7F8946091B5027091B6028091B7027E
:1005E0009091B8022FBF08950F931F93CF93DF937D
:1005F000C82FD62F86E0C89FF0011124E05AFB4F88
:1006000011A2878D90A181309105F1F058F08230D0
:100610009105F1F1039709F440C0DF91CF911F914B
:100620000F9108956623C9F361E070E08C2F0E945A
:100630008D000E94E8026093B8047093B90480931F
:10064000BA049093BB04E9CF0E94E8020091B80479
:100650001091B9042091BA043091BB04AB01BC01E4
:10066000401B510B620B730B8091CA049091CB0419
:10067000B0E0A0E084179507A607B70748F462E04A
:1006800070E08C2FDF91CF911F910F910C948D0012
:1006900063E070E0D111C1CFF4CF70E060E0F1CF42
:1006A000089520919102260F3327331F21323105FF
:1006B000ECF420918D03FC0190E080E0243069F09F
:1006C00082E00895A09191022191AC014F585D4FB5
:1006D000A40FB52FB11D2C930196861798F3809126
:1006E0009102680F6093910280E0089581E008957F
:1006F00010928D0381E080938C031092670361E078
:1007000082E10E941B0261E083E10E941B02E9EB8F
:10071000F0E080818E7F808380818D7F808388E47C
:100720008093B80085E48093BC000895CF93DF9355
:1007300091E0909370028823B9F0C091B800D091F5
:10074000BA008091BC008A7B8093BC0060E082E1AB
:100750000E941B0260E083E10E941B020E9478035A
:10076000D093BA00C093B800DF91CF9108958F92D3
:100770009F92AF92BF92CF92DF92EF92FF920F9330
:100780001F93CF93DF93D091B603D13208F0D7C037
:10079000182FC091B5030E9491026B017C018091DA
:1007A0008D0381116BC082E080938D0310938C03C5
:1007B0008FEF80938B0310928A03D0938903A5E96E
:1007C000B3E0E9E6F3E080E0D81391C0109268034B
:1007D00080916803CC0FC82BC09368038091670396
:1007E000813009F088C0109267030E9491026B016A
:1007F0007C01809168038093BB0080918F0390916E
:100800009003A0919103B0919203892B8A2B8B2B9B
:10081000A1F00E94910200918F031091900320910A
:100820009103309192036C197D098E099F09061777
:1008300017072807390708F442C08091BC0083FDE0
:10084000D8CF85EC8093BC000E9491026B017C01A3
:1008500080918D03823009F450C080918B038F3FCB
:1008600009F46FC080918B03803209F46CC08091D1
:100870008B03803309F469C084E026C080918F0324
:1008800090919003A0919103B0919203892B8A2BB0
:100890008B2B09F484CF0E94910280908F0390905B
:1008A0009003A0909103B09092036C197D098E097A
:1008B0009F0986169706A806B90608F070CF8091A2
:1008C0008E030E94960385E0109294031092B60363
:1008D00010929303DF91CF911F910F91FF90EF90B2
:1008E000DF90CF90BF90AF909F908F9008959D9193
:1008F00091938F5F69CF85EEA5CF80918F03909103
:100900009003A0919103B0919203892B8A2B8B2B9A
:1009100009F49ECF0E94910200918F0310919003E1
:1009200020919103309192036C197D098E099F09E2
:10093000061717072807390708F08ACFC0CF81E0CC
:10094000C3CF80E0C1CF82E0BFCF83E0BDCF0895A9
:10095000E091C2028091C102E81730F4F0E0E05B60
:10096000FD4F808190E008958FEF9FEF0895909163
:10097000C2028091C1022FEF3FEF981748F4E92F90
:10098000F0E0E05BFD4F208130E09F5F9093C2027A
:10099000C90108958091C1029091C202891B990BEF
:1009A0000895CF92DF92EF92FF920F931F93CF9310
:1009B000DF937C01CB018A0120919303222389F0EC
:1009C000EB016B01C40ED51ECC15DD0569F06991F4
:1009D000D701ED91FC910190F081E02DC7010995BF
:1009E000F3CF642F0E945103C801DF91CF911F9173
:1009F0000F91FF90EF90DF90CF900895CF93DF930A
:100A00001F92CDB7DEB76983209193032223F9F0BB
:100A10002091B603203258F021E030E0FC0133830E
:100A2000228390E080E00F90DF91CF910895809134
:100A30009403E82FF0E0EB56FC4F998190838F5F91
:100A4000809394038093B60381E090E0ECCF61E063
:100A5000CE0101960E945103F7CF682F84E594E000
:100A60000C94FE04FC01248131E030939303209325
:100A7000B503109294031092B6038385862B90E001
:100A80000E942D0581E00C94B70388E080930B054C
:100A900060E080E095E00C9432052091C502309131
:100AA000C6022817390771F49091C3028091C402DD
:100AB000981741F0E091C302F0E0E05FFD4F8081C4
:100AC00090E008958FEF9FEF0895EF92FF920F93BC
:100AD0001F93CF93DF93DC015C96ED90FC905D97C4
:100AE000E114F10479F481E090E013969C938E93E5
:100AF000129790E080E0DF91CF911F910F91FF90CE
:100B0000EF9008955196ED91FC91529750968C91EB
:100B10005097982F90950FB75E962C915E97122F55
:100B2000127021FD6095F8942081112319F1282B72
:100B30002083E7012197F1F728E0462F50E030812C
:100B400060FF1AC0382B3083E7012197F1F7BA0113
:100B500075956795215089F7112381F0808189234C
:100B600080830FBF5C968D919C910197F1F781E096
:100B700090E0C1CF2923DCCF3923E5CF9081892BA9
:100B8000EFCF2091C5023091C6022817390771F4C2
:100B90008091C4022091C30290E0805C9F4F821B31
:100BA000910960E470E00E94E418089590E080E00C
:100BB00008952091C5023091C60228173907B9F46B
:100BC0009091C3028091C402981789F0E091C3020A
:100BD000F0E0E05FFD4F80812091C30230E02F5FA5
:100BE0003F4F2F7333272093C30290E008958FEF78
:100BF0009FEF089590E080E00895FC0181890E94B4
:100C0000EF0121E0892B09F420E0822F08951F9342
:100C1000CF93DF93EC01162F81E08093930380E55F
:100C20008093B503109294031092B6038D2F9D2FDD
:100C3000990F990B0E942D05CE0199270E942D0531
:100C4000812F110F990B0E942D0581E00E94B7039F
:100C500065E070E080E090E0DF91CF911F910C940F
:100C6000B6020F931F93CF938C01C62F0E943205BB
:100C70006C2F6460C8010E9432056C2F6B7FC80125
:100C80000E94320583EC90E00197F1F7CF911F911C
:100C90000F910895CF93C82F682F607F80E095E073
:100CA0000E94310680E1C89FB001112480E095E0E8
:100CB000CF910C943106CF93DF93CDB7DEB7289751
:100CC0000FB6F894DEBF0FBECDBF98E0E8E1F1E0CB
:100CD000DE01119601900D929A95E1F79091080529
:100CE000961708F46FEF70E0660F771F21E030E091
:100CF0002C0F3D1F620F731FFB019081890F8068CD
:100D000028960FB6F894DEBF0FBECDBFDF91CF910E
:100D10000C944A0681E00E944A068BE39FE101970A
:100D2000F1F708950F931F93CF938C01C62F607F27
:100D300061600E94310680E1C89FB00111246160AA
:100D4000C8010E94310681E090E0CF911F910F9180
:100D50000895CF92DF92EF92FF920F931F93CF935C
:100D6000DF93EC0181E08093930380E58093B503EA
:100D7000109294031092B6038D2F9D2F990F990B0B
:100D80000E942D05CE0199270E942D0581E00E9429
:100D9000B7030E9491026B017C0180918D03811148
:100DA00063C081E080938D0380938C039FEF9093C9
:100DB0008B0310928A0310928903809368038091B9
:100DC0006803806A8093680380916703813009F02B
:100DD00082C0109267030E9491026B017C01809196
:100DE00068038093BB0080918F0390919003A09142
:100DF0009103B0919203892B8A2B8B2BA1F00E9437
:100E0000910200918F0310919003209191033091F2
:100E100092036C197D098E099F0906171707280789
:100E2000390708F442C08091BC0083FDD8CF85EC1F
:100E30008093BC000E9491026B017C0180918D0324
:100E4000813009F44AC080918A03811168C0809181
:100E50008A03A9E6B3E0E0E5F2E090E0981751F1EB
:100E60002D9121939F5FFACF80918F0390919003F2
:100E7000A0919103B0919203892B8A2B8B2B09F4BB
:100E80008CCF0E94910200918F03109190032091CA
:100E90009103309192036C197D098E099F09061701
:100EA00017072807390708F078CF80918E030E9432
:100EB000960380E01092C2028093C10284E594E020
:100EC0000E94B704DF91CF911F910F91FF90EF9097
:100ED000DF90CF90089585EEABCF80918F039091F6
:100EE0009003A0919103B0919203892B8A2B8B2BB5
:100EF00009F4A4CF0E94910200918F0310919003F6
:100F000020919103309192036C197D098E099F09FC
:100F1000061717072807390708F090CFC6CF81E0DA
:100F200098CFCF93DF9388EE93E00E94CE18C5E66A
:100F3000D3E0888389EE93E00E94CE18898382E013
:100F400090E0DF91CF910895CF93DF93EC0168811A
:100F500088EE93E00E94D618698189EE93E00E94A2
:100F6000D61882E090E0DF91CF9108950E94341965
:100F7000FB0101900020E9F73197AF01461B570BA9
:100F8000DC01ED91FC910280F381E02D09948F92B8
:100F90009F92AF92BF92EF92FF920F931F93CF93C6
:100FA000DF93CDB7DEB7A1970FB6F894DEBF0FBEC3
:100FB000CDBF7C01FA01CB0119A2223008F42AE04E
:100FC0008E010F5D1F4F822E912CB12CA12CBF01E1
:100FD000A50194010E94F818F901CA016A300CF5C4
:100FE000605DD8016E938D01232B242B252B79F77F
:100FF00090E080E0109721F0BD01C7010E94B80782
:10100000A1960FB6F894DEBF0FBECDBFDF91CF9192
:101010001F910F91FF90EF90BF90AF909F908F9096
:101020000895695CDECFCF92DF92EF92FF920F932B
:101030001F93CF93DF936B01770FEE08FF084A30C1
:101040005105F1F42AE0F7FE1CC0EC016DE20E94AC
:10105000B2008C0144275527BA014C195D096E096D
:101060007F092AE0CE010E94C707800F911FDF9100
:10107000CF911F910F91FF90EF90DF90CF90089547
:10108000242FB701A601DF91CF911F910F91FF90FF
:10109000EF90DF90CF900C94C707CF93DF9366E774
:1010A00071E087EB93E00E94B807EC0164E771E020
:1010B00087EB93E00E94B8078C0F9D1FDF91CF91C3
:1010C00008950C94B80785ED8093BC0080918F0340
:1010D00090919003A0919103B09192030796A11D66
:1010E000B11D23E0B695A795979587952A95D1F7D9
:1010F0002091BC0024FD03C010928D0308954091FF
:101100008F03509190036091910370919203452B4E
:10111000462B472B69F30097A105B10541F025E364
:101120002A95F1F700000197A109B109E1CF80915B
:101130008E030C9496031F920F920FB60F921124F8
:101140002F933F934F935F936F937F938F939F93CF
:10115000AF93BF93EF93FF9387EB93E00E94370128
:10116000FF91EF91BF91AF919F918F917F916F917F
:101170005F914F913F912F910F900FBE0F901F9055
:1011800018951F920F920FB60F9211242F938F93E1
:101190009F93EF93FF93E091C703F091C803808181
:1011A000E091CD03F091CE0382FD1BC09081809130
:1011B000D0038F5F8F732091D103821741F0E091AC
:1011C000D003F0E0E954FC4F958F8093D003FF915A
:1011D000EF919F918F912F910F900FBE0F901F90C5
:1011E00018958081F4CF1F920F920FB60F921124A1
:1011F0002F933F938F939F93AF93BF938091B502AB
:101200009091B602A091B702B091B8023091B402A9
:1012100023E0230F2D3758F50196A11DB11D209312
:10122000B4028093B5029093B602A093B702B09334
:10123000B8028091B9029091BA02A091BB02B0911C
:10124000BC020196A11DB11D8093B9029093BA0210
:10125000A093BB02B093BC02BF91AF919F918F91BD
:101260003F912F910F900FBE0F901F90189526E879
:10127000230F0296A11DB11DD2CF1F920F920FB660
:101280000F9211242F933F934F935F936F937F930C
:101290008F939F93AF93BF93EF93FF938091B90088
:1012A000887F803609F44AC0F0F5883209F4A7C077
:1012B00018F5803109F49BC0B8F4882309F4F9C00B
:1012C000883009F494C0FF91EF91BF91AF919F9145
:1012D0008F917F916F915F914F913F912F910F90DF
:1012E0000FBE0F901F901895883109F488C0803286
:1012F00051F780938B0314C0803409F49DC040F4EF
:101300008033B9F38833F9F680938B0385ECB0C052
:10131000803509F485C0883509F496C0883499F67B
:101320000E946308D0CF883909F48CC038F588371B
:1013300029F050F4883611F0803729F683E0809345
:101340008D031092B30257C0883809F47BC08039EE
:1013500019F0803809F0B7CF8091B302803208F0DD
:1013600071C0E091B30281E08E0F8093B30280914F
:10137000BB00F0E0ED56FD4F80833DC0803B39F06F
:10138000E0F4803A09F479C0883A09F09CCF84E00F
:1013900080938D031092920210929102E091BF020D
:1013A000F091C00209958091910281110FC081E0F6
:1013B000809391021092710209C0803C09F4A6CF7B
:1013C000883C09F4A3CF883B09F07DCFE0919202DD
:1013D00081E08E0F80939202F0E0EF58FD4F808104
:1013E0008093BB00909192028091910229C08091DC
:1013F00068038093BB0085EC8093BC0064CF909120
:101400008A0380918903981758F5E0918A0381E057
:101410008E0F80938A03F0E0E759FC4F8081E9CF7B
:10142000E0918A0381E08E0F80938A038091BB0054
:10143000F0E0E759FC4F808390918A038091890303
:101440009817C8F285E8D8CFE0918A0381E08E0F23
:1014500080938A038091BB00F0E0E759FC4F8083C2
:1014600080918C0381115CCF81E08093670384EAD3
:101470008093BC0010928D0326CF85EC8093BC0036
:1014800010928D038091B302803230F4E091B30268
:10149000F0E0ED56FD4F10826091B30270E0E091F4
:1014A000BD02F091BE0283E992E009951092B30269
:1014B0000ACF10928B0334CF1F920F920FB60F9268
:1014C00011242F933F934F935F936F937F938F9349
:1014D0009F93AF93BF93EF93FF93E091C502F09179
:1014E000C602309749F0A685B7858585968D91FF10
:1014F00014C09C918923A1F4FF91EF91BF91AF910A
:101500009F918F917F916F915F914F913F912F911B
:101510000F900FBE0F901F9018959C91892361F733
:10152000A389B4899C918589809589238C93868928
:1015300097890197F1F7608D718DA685B7855585DF
:1015400038E020E0CB010197F1F7822F90E09595EC
:101550008795282F4C91452309F02068315091F749
:10156000868D81FD20958091C40290E001968F7355
:1015700099273091C302381799F0A091C402B0E0C6
:10158000A05FBD4F2C938093C402828D938D0197F1
:10159000F1F7A389B4898C919589892B8C93ACCF71
:1015A000868D8160868FF1CF1F920F920FB60F92BA
:1015B00011248F939F9380915F0390916003019614
:1015C0009093600380935F039F918F910F900FBE64
:1015D0000F901F9018951092BA031092B90388EEDD
:1015E00093E0A0E0B0E08093BB039093BC03A09392
:1015F000BD03B093BE0324E231E03093B8032093DF
:10160000B70325EC30E03093C4032093C30324ECEC
:1016100030E03093C6032093C50320EC30E03093D4
:10162000C8032093C70321EC30E03093CA03209312
:10163000C90322EC30E03093CC032093CB0326EC9B
:1016400030E03093CE032093CD031092D00310925C
:10165000D1031092D2031092D30310925704109228
:1016600056048093580490935904A0935A04B0935D
:101670005B0426E331E03093550420935404109228
:101680000305109202052CE631E03093010520930A
:10169000000527E22093040520E12093090522E0BC
:1016A00020930A0510920B051092E4041092E304B3
:1016B0008093E5049093E604A093E704B093E804D4
:1016C0008AE591E09093E2048093E1041092F8049B
:1016D0001092F7041092FA041092F9041092FC048C
:1016E0001092FB041092FE041092FD046091FF041E
:1016F0006E7F6D7F6093FF046695617081E068275F
:1017000083E00E941B0261E083E00E944D02E1EB56
:10171000F0E0E491E093F104EDE9F0E0E491F0E031
:10172000EE0FFF1FE057FF4F859194919093F304C4
:101730008093F20460E082E00E944D028091FF04F9
:1017400081FD04C061E082E00E941B0282E0809380
:10175000ED04E0EBF0E0E491E093EE04ECE9F0E07E
:10176000E491F0E0EE0FFF1FEA57FF4F859194914F
:101770009093F0048093EF041092D1041092D2045D
:101780001092D3041092D4048AE090E09093D6048F
:101790008093D5041092D70482E591E09093D00411
:1017A0008093CF041092E0041092620410926604B9
:1017B000109265041092670488E491E090936104AC
:1017C00080936004ECE7F4E088EB94E010821482EC
:1017D0001382158236968E179F07C1F784E091E039
:1017E0009093C3048093C20480E091E09093C50479
:1017F0008093C40484E08093C6048093C70488E087
:1018000091E09093C1048093C0048AE090E09093AB
:10181000C9048093C80484EF91E09093CB04809333
:10182000CA041092CE041092CD041092BC041092FF
:10183000BD041092BE041092BF041092CC0408950F
:10184000CF93DF9300D0CDB7DEB7789484B58260B4
:1018500084BD84B5816084BD85B5826085BD85B554
:10186000816085BD80916E00816080936E001092D2
:10187000810080918100826080938100809181004D
:1018800081608093810080918000816080938000DE
:101890008091B10084608093B1008091B00081603C
:1018A0008093B00080917A00846080937A00809168
:1018B0007A00826080937A0080917A0081608093C0
:1018C0007A0080917A00806880937A001092C1003B
:1018D00062E085E00E944D0261E083E00E944D02DB
:1018E00060E083E00E941B021092C2021092C102CB
:1018F000109294031092B6030E94780380EB90E05C
:101900009093C0028093BF0281EB90E09093BE025F
:101910008093BD021092050580910A05823018F06F
:1019200098E0909305058093080562E370E080E0FD
:1019300090E00E94B60260910B0580E095E00E9465
:10194000320568EE73E080E090E00E94B60260E34A
:1019500080E095E00E9431060BE416E4C80101978F
:10196000F1F760E380E095E00E943106C80101973D
:10197000F1F760E380E095E00E94310683E592E0B4
:101980000197F1F760E280E095E00E9431068091D6
:10199000050580620E944A0684E0809306058CE07B
:1019A0000E944A060E948A0612E01093070586E00C
:1019B0000E944A0682E00E944A068BE39FE101975B
:1019C000F1F70E94450560E080E00E945B06E0912F
:1019D000C703F091C8031083E091C303F091C403DF
:1019E0001082E091C503F091C6038FEC80831092C2
:1019F000CF03E091CB03F091CC0386E08083E091AC
:101A0000C903F091CA03808180618083E091C9039A
:101A1000F091CA03808188608083E091C903F091CE
:101A2000CA03808180688083E091C903F091CA0372
:101A300080818F7D80831092FC041092FB041092B1
:101A4000FA041092F9041092F8041092F70482E05C
:101A50009DE09093FE048093FD049091ED049631F7
:101A600008F047C02FE636E03093F8042093F704DF
:101A700020E03DE03093FA042093F90427EB39E0AD
:101A80003093FC042093FB042091680084E098309C
:101A900048F031E09E3008F430E081E001C0880F6A
:101AA0003A95EAF7822B809368002DE630E0983073
:101AB00050F02BE630E09E3030F02CE630E09631EE
:101AC00010F030E020E03093F5042093F404292F47
:101AD00030E0983008F022C181E001C0880F9A956B
:101AE000EAF78093F6048091FD049091FE0401973B
:101AF000F1F78091FB049091FC04892B49F1E0916E
:101B0000C502F091C60224E0E13EF20709F13097E8
:101B100039F0A389B4899C918589809589238C9318
:101B20008091FF048E7F8093FF041092C402109274
:101B3000C30281EE94E09093C6028093C502E091C7
:101B4000F404F091F50480819091F604892B808350
:101B500062E084E00E944D021092620310926103E1
:101B60001092DC021092DB0262E085E00E944D02DE
:101B700085E08093E0041092D7048FEC94E00E94FB
:101B8000FD05882329F08091D70483608093D704D2
:101B90000E94E8026093D1047093D2048093D3042E
:101BA0009093D40489E190E09093D6048093D50477
:101BB00061E082E00E945B0667E771E080E095E00B
:101BC0000E9461086EEE72E080E090E00E94B60232
:101BD0000E948A0661E08DE00E945B0661E971E087
:101BE00080E095E00E9461086EEE72E080E090E097
:101BF0000E94B60210920B0560E080E095E00E9422
:101C000032051092CE021092CD021092CA021092AA
:101C1000C9021092D4021092D3028EED93E09093F9
:101C2000CC028093CB021092C8021092C70210928D
:101C30005903109258031092EB021092EA0210928C
:101C4000800010928100109285001092840088E03C
:101C50009DE3909389008093880080918100886043
:101C600080938100809181008560809381008091C4
:101C70006F00826080936F007894412C512C320168
:101C80004394EE24E394F12C1092640310926303C6
:101C90008091610390916203892B11F40C941618C2
:101CA0000E9445051092600310925F0380916103CA
:101CB00090916203019709F04FC08091C902909101
:101CC000CA0280343FE193070CF046C0909355035D
:101CD000809354038091C9029091CA020996209181
:101CE000540330915503821793072CF10091C702DA
:101CF0001091C802C8010E94A9060F5F1F4F1093E0
:101D0000C8020093C702682F87EB93E00E94B200DD
:101D100080915403909155030196D8CF9E3040F4A2
:101D20002850310981E001C0880F2A95EAF7D9CE01
:101D30002E503109F7CF60EA71E087EB93E00E9403
:101D400061080E944D088091C9029091CA020A96CA
:101D50009093CA028093C90281EE94E00E94C1056B
:101D60001816190664F48091610390916203892B1F
:101D700031F481EE94E00E94D90580935E03809156
:101D80005E03853509F0E2C310925D0310925C0397
:101D900010925B0310925A03109259031092580349
:101DA0001092570310925603F0925503E092540399
:101DB000009154031091550302351105B4F481EEDE
:101DC00094E00E94C1051816190644F481EE94E0CF
:101DD0000E94D905F801E051FD4F80830F5F1F4F2E
:101DE0001093550300935403E3CFF0925503E09210
:101DF0005403009154031091550302351105B4F4B6
:101E000081EE94E00E94C1051816190644F481EE93
:101E100094E00E94D905F801E051FD4F80830F5FE7
:101E20001F4F1093550300935403E3CF8091EE02AC
:101E30009091EF02E1EFF2E0DF0121E030E050E0CD
:101E400040E06D91623031F44115510519F4C9013A
:101E500041E050E02F5F3F4F2235310591F79093DD
:101E6000EF028093EE025093570340935603DC0138
:101E7000A051BD4F11962C912A3009F076C00B96D7
:101E800090935D0380935C03F0925903E0925803B2
:101E900040915A0350915B032091EC023091ED0286
:101EA00081E090E06191613021F4AC014E5F5F4FC1
:101EB0009C01019680359105A9F790935503809375
:101EC000540350935B0340935A033093ED022093E5
:101ED000EC0220513D4FF90181818830F1F4F092FC
:101EE0005903E092580340E150E068E070E087EB6E
:101EF00093E00E94130860EA71E087EB93E00E9490
:101F000061086091EC027091ED024AE050E087EBCD
:101F100093E00E9413080E944D08F0925503E0924E
:101F2000540380915403909155038235910594F5A3
:101F300080519D4FFC016081062E000C770B40E123
:101F400050E087EB93E00E94130862EA71E087EBB0
:101F500093E00E946108809154039091550301968B
:101F60009093550380935403DCCF2B3011F40C96DF
:101F700087CF2C3011F40D9683CF2D3011F40E96AF
:101F80007FCF2E3011F40F967BCF2F3009F080CF0A
:101F9000409676CF0E944D0863EB71E087EB93E0AB
:101FA0000E94610860915C0370915D034AE050E01B
:101FB00087EB93E00E94130864EA71E087EB93E0FB
:101FC0000E94610860915A0370915B034AE050E0FF
:101FD00087EB93E00E94130867EA71E087EB93E0D8
:101FE0000E9461084AE050E070E060E087EB93E017
:101FF0000E9413086AEA71E087EB93E00E9461088F
:1020000060915803709159034AE050E087EB93E0E8
:102010000E94130860EB71E087EB93E00E94610877
:102020006091EA027091EB024AE050E087EB93E0A6
:102030000E94130866EB71E087EB93E00E94610851
:102040006091EE027091EF024AE050E087EB93E07E
:102050000E9413080E944D0800915C0310915D03DB
:10206000101611065CF5F801E051FD4FDF011997DC
:102070008C918093E00211968C918093E1021196ED
:102080008C918093E20211968C918093E3021196D9
:102090008C918093E40211968C918093E5021196C5
:1020A0008C918093E60211968C918093E7021196B1
:1020B0008C918093E80280818093E9021092DF0284
:1020C0001092DE028091DE029091DF028034FFE107
:1020D0009F070CF077C00E94A9069091E002891337
:1020E00067C08091DE029091DF0201960E94A906EE
:1020F0009091E10289135CC08091DE029091DF0231
:1021000002960E94A9069091E202891351C0809123
:10211000DE029091DF0203960E94A9069091E302ED
:10212000891346C08091DE029091DF0204960E94DE
:10213000A9069091E40289133BC08091DE02909140
:10214000DF0205960E94A9069091E502891330C02E
:102150008091DE029091DF0206960E94A90690917E
:10216000E602891325C08091DE029091DF02079676
:102170000E94A9069091E70289131AC08091DE029D
:102180009091DF0208960E94A9069091E8028913B7
:102190000FC08091DE029091DF0209960E94A9068D
:1021A0009091E902891304C0F0926403E092630302
:1021B0008091DE029091DF020A969093DF02809375
:1021C000DE0280CF60E080E00E945B0680916303C6
:1021D00090916403019709F0CAC0809158039091CF
:1021E0005903019709F0C3C00B501109109355030F
:1021F0000093540356E4C52E6DE2D62E80915C0305
:1022000090915D030091540310915503801791073D
:102210007CF180519D4FFC013B97C0820A97FC01E5
:10222000D0820E944505809106058D7F809306052A
:1022300088600E944A06F801E051FD4F608187EBFB
:1022400093E00E94B200E0915403F0915503E051F5
:10225000FD4F608180E095E00E94B20080915403C0
:102260009091550301969093550380935403C6CFE4
:1022700060E08DE00E945B066EE971E080E095E031
:102280000E94610861E080E00E945B06E0915A03D1
:10229000F0915B03E051FD4F608180E095E00E948A
:1022A000B200E0915A03F0915B03E051FD4F618170
:1022B00080E095E00E94B2006FE280E095E00E942D
:1022C000B200E0915A03F0915B03E051FD4F62814F
:1022D00080E095E00E94B200E0915A03F0915B0328
:1022E000E051FD4F638180E095E00E94B2006DE215
:1022F00080E095E00E94B200E0915A03F0915B0308
:10230000E051FD4F648180E095E00E94B200E091D1
:102310005A03F0915B03E051FD4F658180E095E049
:102320000E94B2006AE380E095E00E94B200E09172
:102330005A03F0915B03E051FD4F668180E095E028
:102340000E94B200E0915A03F0915B03E051FD4F0F
:10235000678180E095E00E94B2000E944D0860E035
:1023600083E00E941B021092600310925F03809131
:10237000630390916403892B09F0CDC080915803C9
:1023800090915903019709F0C6C080915C03909128
:102390005D030B97909355038093540332E4C32E4F
:1023A0004DE2D42E80915C0390915D030091540323
:1023B00010915503801791077CF180519D4FFC01CE
:1023C0003B97C0820A97FC01D0820E94450580910C
:1023D00006058D7F8093060588600E944A06F801F5
:1023E000E051FD4F608187EB93E00E94B200E091E5
:1023F0005403F0915503E051FD4F608180E095E07A
:102400000E94B200809154039091550301969093DD
:10241000550380935403C6CF60E08DE00E945B06B5
:102420006EE971E080E095E00E94610861E080E083
:102430000E945B06E0915A03F0915B03E051FD4F6F
:10244000608180E095E00E94B200E0915A03F09133
:102450005B03E051FD4F618180E095E00E94B20096
:102460006FE280E095E00E94B200E0915A03F091A3
:102470005B03E051FD4F628180E095E00E94B20075
:10248000E0915A03F0915B03E051FD4F638180E0DE
:1024900095E00E94B2006DE280E095E00E94B200FB
:1024A000E0915A03F0915B03E051FD4F648180E0BD
:1024B00095E00E94B200E0915A03F0915B03E05175
:1024C000FD4F658180E095E00E94B2006AE380E004
:1024D00095E00E94B200E0915A03F0915B03E05155
:1024E000FD4F668180E095E00E94B200E0915A03C2
:1024F000F0915B03E051FD4F678180E095E00E9421
:10250000B2000E944D0861E083E00E941B0210921D
:10251000600310925F0380915E03E0EFF2E031967A
:1025200022E433E02E173F0719F0108280E0F7CF46
:10253000E2E5F0E0F0935503E093540380935E03EB
:1025400068E671E080E090E00E94B60280915F034F
:102550009091600384970CF18091610390916203E4
:10256000892BD9F410920B0560E080E095E00E9481
:10257000320560E083E00E941B020E948A0661E04F
:102580008DE00E945B0661E971E080E095E00E94C9
:1025900061081092600310925F0381E08093CC0485
:1025A0000E94E8020091BC041091BD042091BE0479
:1025B0003091BF04AB01BC01401B510B620B730B8C
:1025C0008091C8049091C904B0E0A0E084179507F9
:1025D000A607B70708F084C110E08091C604181759
:1025E00060F4E091C204F091C304E10FF11D62E0D8
:1025F00080810E944D021F5FF0CF312C8091C70473
:10260000381608F061C0C32CD12CE091C404F091BD
:10261000C504EC0DFD1D61E080810E944D02E0913A
:10262000C404F091C504EC0DFD1D60E080810E94A2
:102630001B02D301C201032C04C0880F991FAA1FDB
:10264000BB1F0A94D2F74C015C01A094B094212CDA
:102650008091C604281608F5022D10E0E091C2040E
:10266000F091C304E00FF11F80810E94EF010C5F25
:102670001F4F000F111FF801E05AFB4F892B41F447
:102680008081918188299929918380832394E0CF47
:10269000808191818A219B21F7CFE091C404F09140
:1026A000C504EC0DFD1D61E080810E941B0280913C
:1026B000C4049091C504C80ED91E60E0F601808163
:1026C0000E944D0233949ACF00E614E06801F601AF
:1026D000878D90A1892B31F4148E2FEF3FEF368F29
:1026E000258F11A236E0C30ED11C5CE9C51654E05B
:1026F000D50669F7B12C8091C604B81608F053C00E
:10270000A12C8B2C912C880C991CC40188599B4FAF
:102710004C012091C704A21608F043C0F401608167
:1027200071810A2C02C0769567950A94E2F7B29EF1
:10273000900111242A0D311DE0E6F4E080E0458D82
:10274000568D2417350709F49DC48F5F36968A305D
:10275000B1F760FF24C0E0E6F4E090E080E0448D53
:10276000411118C0E091C004F091C104E20FF31FC1
:10277000408156E0589FF001599FF00D1124E05A16
:10278000FB4F448F368F258F10A2178E61E00E9479
:10279000F40205C0019636968A30910501F7A3949C
:1027A000B8CFB394A8CFB12CF80181A18111B82E74
:1027B0000A5F1F4FC016D106B9F70E94E802609366
:1027C000BC047093BD048093BE049093BF04BB20EF
:1027D00009F486C080918104882309F481C00091A6
:1027E0007F04109180040130110509F079C0B09088
:1027F0007C04B11079C08091DD02823409F0D4C02C
:1028000080917F0490918004029709F0CDC0F092EE
:10281000D402E092D3028091D3029091D402019726
:1028200009F0E3C00E94E8020091CF021091D002AB
:102830002091D1023091D202601B710B820B930B5D
:10284000653C79408105910508F4CFC060E080E0E7
:102850000E945B060E948A066BEC71E080E095E0C6
:102860000E9461081092DF021092DE028091DE0267
:102870009091DF020091D7021091D8028017910742
:102880000CF09DC06FEF0E94070660E080E00E94A0
:102890005B06C80164E670E00E94E4188091DE02E5
:1028A0009091DF020E94E4186F5F7F4F4AE050E092
:1028B00080E095E00E94130860E083E00E945B06E0
:1028C0006BED71E080E095E00E9461088091DE028E
:1028D0009091DF0201969093DF028093DE02C6CFD3
:1028E0001092CC04B12C87CFB092DD02F4E4BF1279
:1028F00039C08091DB029091DC020097D9F483E02B
:1029000090E090936203809361030E948A0661E0E5
:102910008DE00E945B0669EB71E080E095E00E942B
:1029200061081093DC020093DB021092DA0210922D
:10293000D90261CF019709F05ECF10926203109225
:1029400061030E948A0661E08DE00E945B066FEBE6
:1029500071E080E095E00E9461081092DC02109224
:10296000DB02E3CF22E4B21246CF1093620300935E
:1029700061030E948A0661E08BE00E945B0664ECC2
:1029800071E080E095E00E9461080E9491078091CB
:102990006503909166039093D8028093D7021092BA
:1029A000D6021092D502C1CF0E94E8026093CF02F6
:1029B0007093D0028093D1029093D2022CCF60E02A
:1029C00080E00E945B060E948A066DED71E080E067
:1029D00095E00E9461081A821982CE0101960E9438
:1029E000A4071092D4021092D30253E4B51216C079
:1029F0008091D9029091DA02019781F482E090E00F
:102A0000909362038093610361E08BE00E945B0618
:102A10006EEE71E080E095E00E94610881EE94E046
:102A20000E94C1051816190624F481EE94E00E9454
:102A3000D90581E4B81273C00E948A06F09262033D
:102A4000E09261031092D8021092D7021092D6023F
:102A50001092D50261E08BE00E945B0666EF71E0A8
:102A600080E095E00E946108F092DA02E092D902DB
:102A70000E94910780916503909166039093DF0215
:102A80008093DE028091610390916203892B09F0AB
:102A90008CC09AE2B91289C083E00E94EF010197CD
:102AA00009F083C01092550310925403809154038F
:102AB000909155038A3091050CF077C080529D4F5C
:102AC000FC011081612F80916503909166030E9443
:102AD0000706612F87EB93E00E94B20080916503A7
:102AE000909166030196909366038093650385E653
:102AF00093E00E94A40760E08DE00E945B066DEF0A
:102B000071E080E095E00E9461088091540390910B
:102B1000550301969093550380935403C7CFB1108A
:102B2000A7CF84EC99E09093CB048093CA04809162
:102B3000DD02883509F06AC28091610390916203D9
:102B4000019709F063C280917F04909180040297FD
:102B500009F05CC28091D7029091D8022091650360
:102B600030916603281739070CF44CC29093550333
:102B70008093540380915403909155032091D70280
:102B80003091D802275F3F4F281739070CF4FBC15B
:102B90000E94A906682F80E095E00E94B200809113
:102BA0005403909155030196E1CF80916103909178
:102BB0006203019709F0E7C0F4E4BF1609F4E3C02B
:102BC0000091D5021091D60260E0802F0E945B0632
:102BD00080910605982F9260909306058A600E9466
:102BE0004A061092CE021092CD020130110549F52D
:102BF00020916503309166038091CB029091CC02C5
:102C0000281739074CF48091DE029091DF02099673
:102C1000909366038093650306301105F1F52091CA
:102C20006503309166038091CB029091CC02281706
:102C300039070CF045C28091DE029091DF020496C4
:102C40003BC20230110589F420916503309166037F
:102C50008091CB029091CC0228173907ECF6809135
:102C6000DE029091DF020896D3CF0330110509F000
:102C70000BC220916503309166038091CB02909145
:102C8000CC02281739074CF48091DE029091DF02C4
:102C9000079690936603809365030730110531F51D
:102CA00020916503309166038091CB029091CC0214
:102CB000281739070CF004C28091DE029091DF02E0
:102CC0000396FAC120916503309166038091CB028F
:102CD0009091CC02281739074CF48091DE02909134
:102CE000DF02069690936603809365030830110512
:102CF000B1F00930110509F0E3C12091650330916D
:102D000066038091CB029091CC02281739070CF012
:102D1000D7C18091DE029091DF020196CDC1209152
:102D20006503309166038091CB029091CC02281705
:102D300039070CF0C5C18091DE029091DF02029646
:102D4000BBC16B2D80E095E00E94B2006B2D80919D
:102D5000DE029091DF020E9407068091DE029091D0
:102D6000DF0201969093DF028093DE028091D5020C
:102D70009091D60201969093D6028093D5028EED63
:102D800092E00E94A4078091D9029091DA02019703
:102D900009F050C08091610390916203029709F09D
:102DA00049C00091CD021091CE020A3011050CF0FD
:102DB00041C08AE2B816F1F193E2B916D9F1E3E421
:102DC000BE16C1F18091DE029091DF02892B91F154
:102DD0008091D7029091D8020A979093D80280935D
:102DE000D70280910605982F9260909306058A601D
:102DF0000E944A0660E0802F0E945B066B2D80E0F7
:102E000095E00E94B2000091D7021091D8026B2D7C
:102E1000C8010E940706055F1F4F1093D802009358
:102E2000D7028091CD029091CE0201969093CE026E
:102E30008093CD028091610390916203029709F023
:102E400070CEF3E4BF126DCE60E080E00E945B06BE
:102E50008091D7029091D8020A979093550380935E
:102E6000540300915403109155038091D70290911F
:102E7000D802081719070CF054CE6FEFC8010E9452
:102E80000706C8010E94A906682F80E095E00E940D
:102E9000B20080915403909155030196DECF2091AA
:102EA000D9023091DA022130310539F55AE2B516EE
:102EB00009F433C1EAE0CE16D10408F42EC1909390
:102EC00055038093540380915403909155032091AE
:102ED000D7023091D802275F3F4F28173907E4F017
:102EE0000E94A906682F80E095E00E94B2008091C0
:102EF0005403909155030196E2CF232B09F00DC1A5
:102F0000FAE2BF16E1F222E4B216C9F23AE0C316C1
:102F1000D10408F002C1D3CF62EA71E080E095E00D
:102F20000E94610860E08BE00E945B068091D702FE
:102F30009091D8020A969093D8028093D7020AE023
:102F400010E0B8010E94E4184AE050E080E095E00B
:102F50000E94130861E080E00E945B068091650397
:102F6000909166034AE050E070E060E08A3091059D
:102F70002CF0B8010E94E4184AE050E080E095E0AF
:102F80000E941308CAC062EA71E080E095E00E94E6
:102F9000610860E08BE00E945B060091D70210910F
:102FA000D802065F1F4F1093D8020093D70268EC37
:102FB00070E080E090E00E94B6028AE0C82ED12C3A
:102FC000C801B6010E94E4184AE050E080E095E0B4
:102FD0000E94130861E080E00E945B068091650317
:102FE000909166034AE050E061E070E08A3091051C
:102FF0002CF0B6010E94E4184AE050E080E095E031
:103000000E94130860E080E00E945B0680E090E090
:10301000892B11F40C94440E0E942301882311F48F
:103020000C94440E0E9400000C94440E0E949107E0
:1030300087EB93E00E941701892B11F40C94560E34
:1030400087EB93E00E94F500282F082E000C330B2D
:10305000205331092A30310558F7682F80916503D4
:10306000909166030E940706809165039091660324
:103070000196909366038093650385E693E00E9432
:10308000A407D6CF617083CB0430110509F41ACEA2
:103090000530110509F0C0CD20916503309166031C
:1030A0008091CB029091CC02281739074CF4809183
:1030B000DE029091DF02059690936603809365038C
:1030C000CB2C0B2C000CDD0820E3C21AD1083AE00F
:1030D000C316D10450F40A3011053CF48091D90292
:1030E0009091DA02892B09F42CCE60E080E00E94F6
:1030F0005B0685E693E00E94A4071092D602109228
:10310000D5028091D7029091D80220916503309129
:103110006603281739070CF0C2CE60E080E00E94F9
:103120005B068091D7029091D80280349F410CF4C5
:103130002ACE60E080E00E945B0661E072E080E001
:1031400095E00E94610860E08EE00E945B0660915D
:103150006503709166034AE050E080E095E00E94CC
:10316000130811CE8AE591E09093E2048093E10484
:103170008091C5029091C602815E944071F4E09105
:10318000F404F091F50490818091F60480958923F0
:1031900080831092C6021092C5020895F999FECF5D
:1031A00092BD81BDF89A992780B50895262FF99987
:1031B000FECF1FBA92BD81BD20BD0FB6F894FA9A1A
:1031C000F99A0FBE0196089597FB072E16F4009406
:1031D00007D077FD09D00E941A1907FC05D03EF4EC
:1031E000909581959F4F0895709561957F4F0895B3
:1031F000A1E21A2EAA1BBB1BFD010DC0AA1FBB1FFB
:10320000EE1FFF1FA217B307E407F50720F0A21B6C
:10321000B30BE40BF50B661F771F881F991F1A94D9
:1032200069F760957095809590959B01AC01BD0103
:10323000CF010895AA1BBB1B51E107C0AA1FBB1FEA
:10324000A617B70710F0A61BB70B881F991F5A9532
:10325000A9F780959095BC01CD010895EE0FFF1F51
:103260000590F491E02D099481E090E0F8940C949D
:10327000391910E0C2E6D0E004C0FE010E942E1908
:0C3280002196C336D107C9F7F894FFCFA0
:10328C000C0B0A0509080706313233413435364236
:10329C00373839432A305844000040001400540099
:1032AC00000000005901B900E600A6011701F50065
:1032BC00090100000000FE04D104FA05A704CA04A9
:1032CC00B704A8040000000089024902180200009B
:1032DC000000FD058D02000000006505B900FA052F
:1032EC00A704C105D9054D05000000009206B900E0
:1032FC00FA0550030D0A00332E384646303332356A
:10330C0032322E352020202020202020202020206A
:10331C00004F4E2020202020202020202020202064
:10332C0020002D004C3D00643D00636964593D0054
:10333C006369644E3D00483D004F46462020004FD7
:10334C004E20200050726F6720200020202020206B
:10335C002020436C656172696E670025004D656DB8
:10336C006F727920436C656172656420200045643E
:10337C006974202020004C6973742020004D454D49
:10338C00004D656D6F72792046756C6C20202000A5
:00000001FF
