:100000000C9463000C948B000C948B000C945C0A91
:100010000C945C0A0C945C0A0C948B000C948B007E
:100020000C948B000C948B000C948B000C94D40AD1
:100030000C948B000C948B000C948B000C948B0014
:100040000C94F3080C948B000C94C1080C949B083E
:100050000C948B000C948B000C948B000C948B00F4
:100060000C943D090C948B00000000002400270034
:100070002A0000000008000201000003040700003D
:1000800000000000000000000000230026002900FE
:1000900000000000250028002B00040404040404D0
:1000A0000404020202020202030303030303010227
:1000B00004081020408001020408102001020408F6
:1000C0001020EB0A8A1811241FBECFEFD8E0DEBF44
:1000D000CDBF12E0A0E0B1E0ECE3F2E302C0059096
:1000E0000D92A031B107D9F725E0A0E1B2E001C03F
:1000F0001D92AA30B207E1F710E0C2E6D0E004C0DA
:100100002197FE010E940619C136D107C9F70E9446
:10011000200C0C9411190C94000096E0899FD001DA
:100120001124A25ABB4F90967C936E935F9791E0F7
:1001300091969C939197E091CB04F091CC0490918F
:10014000CA04992339F0309751F0811108C0809189
:100150007A040994309719F05C968C91FACF08953F
:1001600008950895DC01ED91FC910190F081E02D5E
:100170000994AF92BF92CF92DF92EF92FF920F93CA
:100180001F93CF93DF936C017B018B01040F151F2D
:10019000EB015E01AE18BF08C017D10759F0699195
:1001A000D601ED91FC910190F081E02DC6010995F9
:1001B000892B79F7C501DF91CF911F910F91FF90A6
:1001C000EF90DF90CF90BF90AF900895FC01538DDA
:1001D000448D252F30E0842F90E0821B930B541721
:1001E00010F0CF96089501970895FC01918D828DAE
:1001F000981761F0A28DAE0FBF2FB11D5D968C9147
:10020000928D9F5F9F73928F90E008958FEF9FEF85
:100210000895FC01918D828D981731F0828DE80F41
:10022000F11D858D90E008958FEF9FEF0895FC01FB
:10023000918D228D892F90E0805C9F4F821B9109C8
:100240008F739927089585EB93E00E94170121E0B1
:10025000892B09F420E0822F089580E090E0892B1B
:1002600029F00E94230181110C9400000895FC01E3
:10027000A48DA80FB92FB11DA35ABF4F2C91848D07
:1002800090E001968F739927848FA689B7892C9364
:10029000A089B1898C91837080648C93938D848DB7
:1002A000981306C00288F389E02D80818F7D8083BA
:1002B0000895EF92FF920F931F93CF93DF93EC017A
:1002C00081E0888F9B8D8C8D98131AC0E889F989FD
:1002D000808185FF15C09FB7F894EE89FF89608300
:1002E000E889F98980818370806480839FBF81E081
:1002F00090E0DF91CF911F910F91FF90EF900895C3
:10030000F62E0B8D10E00F5F1F4F0F731127E02E9D
:100310008C8D8E110CC00FB607FCFACFE889F989D5
:10032000808185FFF5CFCE010E943701F1CFEB8DA3
:10033000EC0FFD2FF11DE35AFF4FF0829FB7F894A9
:100340000B8FEA89FB8980818062CFCFCF93DF93C7
:10035000EC01888D8823B9F0AA89BB89E889F989DD
:100360008C9185FD03C0808186FD0DC00FB607FC12
:10037000F7CF8C9185FFF2CF808185FFEDCFCE0145
:100380000E943701E9CFDF91CF910895833081F04A
:1003900028F4813099F08230A9F008958730A9F0CF
:1003A0008830C9F08430B1F4809180008F7D03C023
:1003B000809180008F7780938000089584B58F7737
:1003C00084BD089584B58F7DFBCF8091B0008F7779
:1003D0008093B00008958091B0008F7DF9CFCF93C6
:1003E000DF93282F30E0F901EE58FF4F8491F90197
:1003F000E255FF4FD491F901E656FF4FC491CC234B
:10040000A1F081110E94C601EC2FF0E0EE0FFF1F5A
:10041000EA57FF4FA591B491EC91ED2381E090E074
:1004200009F480E0DF91CF91089580E090E0FACF69
:10043000862F0C94EF011F93CF93DF93282F30E08A
:10044000F901EE58FF4F8491F901E255FF4FD49125
:10045000F901E656FF4FC491CC23A9F0162F811164
:100460000E94C601EC2FF0E0EE0FFF1FE057FF4F98
:10047000A591B4918FB7F894EC91111108C0D09563
:10048000DE23DC938FBFDF91CF911F910895DE2B88
:10049000F8CF862F642F0C941B02CF93DF9390E04C
:1004A000FC01E255FF4F249186569F4FFC01849139
:1004B0008823C9F090E0880F991FFC01E859FF4F8D
:1004C000A591B491FC01E057FF4FC591D491611102
:1004D0000DC09FB7F8948C91209582238C938881CE
:1004E000282328839FBFDF91CF910895623051F474
:1004F0009FB7F8943C91822F809583238C93E88159
:100500002E2BEFCF8FB7F894EC912E2B2C938FBF1F
:10051000EACF862F642F0C944D02862F642F0C9403
:100520004D023FB7F8948091B9029091BA02A09120
:10053000BB02B091BC0226B5A89B05C02F3F19F0A5
:100540000196A11DB11D3FBFBA2FA92F982F882753
:10055000BC01CD01620F711D811D911D42E0660F2E
:10056000771F881F991F4A95D1F708958F929F9200
:10057000AF92BF92CF92DF92EF92FF924B015C015C
:100580000E9491026B017C010E9491026C197D090D
:100590008E099F09683E734081059105A8F321E00B
:1005A000821A9108A108B10888EEC80E83E0D81E0F
:1005B000E11CF11C81149104A104B10429F7FF90FE
:1005C000EF90DF90CF90BF90AF909F908F90089565
:1005D0002FB7F8946091B5027091B6028091B7027E
:1005E0009091B8022FBF08950F931F93CF93DF937D
:1005F000C82FD62F86E0C89FF0011124E25AFB4F86
:1006000011A2878D90A181309105F1F058F08230D0
:100610009105F1F1039709F440C0DF91CF911F914B
:100620000F9108956623C9F361E070E08C2F0E945A
:100630008D000E94E8026093B6047093B704809323
:10064000B8049093B904E9CF0E94E8020091B6047F
:100650001091B7042091B8043091B904AB01BC01EA
:10066000401B510B620B730B8091C8049091C9041D
:10067000B0E0A0E084179507A607B70748F462E04A
:1006800070E08C2FDF91CF911F910F910C948D0012
:1006900063E070E0D111C1CFF4CF70E060E0F1CF42
:1006A000089520919102260F3327331F21323105FF
:1006B000ECF420918B03FC0190E080E0243069F0A1
:1006C00082E00895A09191022191AC014F585D4FB5
:1006D000A40FB52FB11D2C930196861798F3809126
:1006E0009102680F6093910280E0089581E008957F
:1006F00010928B0381E080938A031092650361E07E
:1007000082E10E941B0261E083E10E941B02E9EB8F
:10071000F0E080818E7F808380818D7F808388E47C
:100720008093B80085E48093BC000895CF93DF9355
:1007300091E0909370028823B9F0C091B800D091F5
:10074000BA008091BC008A7B8093BC0060E082E1AB
:100750000E941B0260E083E10E941B020E9478035A
:10076000D093BA00C093B800DF91CF9108958F92D3
:100770009F92AF92BF92CF92DF92EF92FF920F9330
:100780001F93CF93DF93D091B403D13208F0D7C039
:10079000182FC091B3030E9491026B017C018091DC
:1007A0008B0381116BC082E080938B0310938A03CB
:1007B0008FEF8093890310928803D0938703A3E976
:1007C000B3E0E7E6F3E080E0D81391C0109266034F
:1007D00080916603CC0FC82BC0936603809165039C
:1007E000813009F088C0109265030E9491026B016C
:1007F0007C01809166038093BB0080918D03909172
:100800008E03A0918F03B0919003892B8A2B8B2BA1
:10081000A1F00E94910200918D0310918E0320910E
:100820008F03309190036C197D098E099F0906177B
:1008300017072807390708F442C08091BC0083FDE0
:10084000D8CF85EC8093BC000E9491026B017C01A3
:1008500080918B03823009F450C0809189038F3FCF
:1008600009F46FC080918903803209F46CC08091D3
:100870008903803309F469C084E026C080918D0328
:1008800090918E03A0918F03B0919003892B8A2BB6
:100890008B2B09F484CF0E94910280908D0390905D
:1008A0008E03A0908F03B09090036C197D098E0980
:1008B0009F0986169706A806B90608F070CF8091A2
:1008C0008C030E94960385E0109292031092B40369
:1008D00010929103DF91CF911F910F91FF90EF90B4
:1008E000DF90CF90BF90AF909F908F9008959D9193
:1008F00091938F5F69CF85EEA5CF80918D03909105
:100900008E03A0918F03B0919003892B8A2B8B2BA0
:1009100009F49ECF0E94910200918D0310918E03E5
:1009200020918F03309190036C197D098E099F09E6
:10093000061717072807390708F08ACFC0CF81E0CC
:10094000C3CF80E0C1CF82E0BFCF83E0BDCF0895A9
:10095000E091C2028091C102E81730F4F0E0E05B60
:10096000FD4F808190E008958FEF9FEF0895909163
:10097000C2028091C1022FEF3FEF981748F4E92F90
:10098000F0E0E05BFD4F208130E09F5F9093C2027A
:10099000C90108958091C1029091C202891B990BEF
:1009A0000895CF92DF92EF92FF920F931F93CF9310
:1009B000DF937C01CB018A0120919103222389F0EE
:1009C000EB016B01C40ED51ECC15DD0569F06991F4
:1009D000D701ED91FC910190F081E02DC7010995BF
:1009E000F3CF642F0E945103C801DF91CF911F9173
:1009F0000F91FF90EF90DF90CF900895CF93DF930A
:100A00001F92CDB7DEB76983209191032223F9F0BD
:100A10002091B403203258F021E030E0FC01338310
:100A2000228390E080E00F90DF91CF910895809134
:100A30009203E82FF0E0ED56FC4F998190838F5F91
:100A4000809392038093B40381E090E0ECCF61E067
:100A5000CE0101960E945103F7CF682F82E594E002
:100A60000C94FE04FC01248131E030939103209327
:100A7000B303109292031092B4038385862B90E007
:100A80000E942D0581E00C94B70388E0809309054E
:100A900060E08EEF94E00C9432052091C502309115
:100AA000C6022817390771F49091C3028091C402DD
:100AB000981741F0E091C302F0E0E05FFD4F8081C4
:100AC00090E008958FEF9FEF0895EF92FF920F93BC
:100AD0001F93CF93DF93DC015C96ED90FC905D97C4
:100AE000E114F10479F481E090E013969C938E93E5
:100AF000129790E080E0DF91CF911F910F91FF90CE
:100B0000EF9008955196ED91FC91529750968C91EB
:100B10005097982F90950FB75E962C915E97122F55
:100B2000127021FD6095F8942081112319F1282B72
:100B30002083E7012197F1F728E0462F50E030812C
:100B400060FF1AC0382B3083E7012197F1F7BA0113
:100B500075956795215089F7112381F0808189234C
:100B600080830FBF5C968D919C910197F1F781E096
:100B700090E0C1CF2923DCCF3923E5CF9081892BA9
:100B8000EFCF2091C5023091C6022817390771F4C2
:100B90008091C4022091C30290E0805C9F4F821B31
:100BA000910960E470E00E94BC18089590E080E034
:100BB00008952091C5023091C60228173907B9F46B
:100BC0009091C3028091C402981789F0E091C3020A
:100BD000F0E0E05FFD4F80812091C30230E02F5FA5
:100BE0003F4F2F7333272093C30290E008958FEF78
:100BF0009FEF089590E080E00895FC0181890E94B4
:100C0000EF0121E0892B09F420E0822F08951F9342
:100C1000CF93DF93EC01162F81E08093910380E561
:100C20008093B303109292031092B4038D2F9D2FE3
:100C3000990F990B0E942D05CE0199270E942D0531
:100C4000812F110F990B0E942D0581E00E94B7039F
:100C500065E070E080E090E0DF91CF911F910C940F
:100C6000B6020F931F93CF938C01C62F0E943205BB
:100C70006C2F6460C8010E9432056C2F6B7FC80125
:100C80000E94320583EC90E00197F1F7CF911F911C
:100C90000F910895CF93C82F682F607F8EEF94E057
:100CA0000E94310680E1C89FB00111248EEF94E0CC
:100CB000CF910C943106CF93DF93CDB7DEB7289751
:100CC0000FB6F894DEBF0FBECDBF98E0E8E1F1E0CB
:100CD000DE01119601900D929A95E1F7909106052B
:100CE000961708F46FEF70E0660F771F21E030E091
:100CF0002C0F3D1F620F731FFB019081890F8068CD
:100D000028960FB6F894DEBF0FBECDBFDF91CF910E
:100D10000C944A0681E00E944A068BE39FE101970A
:100D2000F1F708950F931F93CF938C01C62F607F27
:100D300061600E94310680E1C89FB00111246160AA
:100D4000C8010E94310681E090E0CF911F910F9180
:100D50000895CF92DF92EF92FF920F931F93CF935C
:100D6000DF93EC0181E08093910380E58093B303EE
:100D7000109292031092B4038D2F9D2F990F990B0F
:100D80000E942D05CE0199270E942D0581E00E9429
:100D9000B7030E9491026B017C0180918B0381114A
:100DA00063C081E080938B0380938A039FEF9093CD
:100DB00089031092880310928703809366038091C1
:100DC0006603806A8093660380916503813009F031
:100DD00082C0109265030E9491026B017C01809198
:100DE00066038093BB0080918D0390918E03A09148
:100DF0008F03B0919003892B8A2B8B2BA1F00E943B
:100E0000910200918D0310918E0320918F033091F8
:100E100090036C197D098E099F090617170728078B
:100E2000390708F442C08091BC0083FDD8CF85EC1F
:100E30008093BC000E9491026B017C0180918B0326
:100E4000813009F44AC080918803811168C0809183
:100E50008803A7E6B3E0E0E5F2E090E0981751F1EF
:100E60002D9121939F5FFACF80918D0390918E03F6
:100E7000A0918F03B0919003892B8A2B8B2B09F4BF
:100E80008CCF0E94910200918D0310918E032091CE
:100E90008F03309190036C197D098E099F09061705
:100EA00017072807390708F078CF80918C030E9434
:100EB000960380E01092C2028093C10282E594E022
:100EC0000E94B704DF91CF911F910F91FF90EF9097
:100ED000DF90CF90089585EEABCF80918D039091F8
:100EE0008E03A0918F03B0919003892B8A2B8B2BBB
:100EF00009F4A4CF0E94910200918D0310918E03FA
:100F000020918F03309190036C197D098E099F0900
:100F1000061717072807390708F090CFC6CF81E0DA
:100F200098CFCF93DF9388EE93E00E94A618C3E694
:100F3000D3E0888389EE93E00E94A618898382E03B
:100F400090E0DF91CF910895CF93DF93EC0168811A
:100F500088EE93E00E94AE18698189EE93E00E94CA
:100F6000AE1882E090E0DF91CF9108950E940C19B5
:100F7000FB0101900020E9F73197AF01461B570BA9
:100F8000DC01ED91FC910280F381E02D09948F92B8
:100F90009F92AF92BF92EF92FF920F931F93CF93C6
:100FA000DF93CDB7DEB7A1970FB6F894DEBF0FBEC3
:100FB000CDBF7C01FA01CB0119A2223008F42AE04E
:100FC0008E010F5D1F4F822E912CB12CA12CBF01E1
:100FD000A50194010E94D018F901CA016A300CF5EC
:100FE000605DD8016E938D01232B242B252B79F77F
:100FF00090E080E0109721F0BD01C7010E94B80782
:10100000A1960FB6F894DEBF0FBECDBFDF91CF9192
:101010001F910F91FF90EF90BF90AF909F908F9096
:101020000895695CDECFCF92DF92EF92FF920F932B
:101030001F93CF93DF936B01770FEE08FF084A30C1
:101040005105F1F42AE0F7FE1CC0EC016DE20E94AC
:10105000B2008C0144275527BA014C195D096E096D
:101060007F092AE0CE010E94C707800F911FDF9100
:10107000CF911F910F91FF90EF90DF90CF90089547
:10108000242FB701A601DF91CF911F910F91FF90FF
:10109000EF90DF90CF900C94C707CF93DF9366E774
:1010A00071E085EB93E00E94B807EC0164E771E022
:1010B00085EB93E00E94B8078C0F9D1FDF91CF91C5
:1010C00008950C94B80785ED8093BC0080918D0342
:1010D00090918E03A0918F03B09190030796A11D6C
:1010E000B11D23E0B695A795979587952A95D1F7D9
:1010F0002091BC0024FD03C010928B030895409101
:101100008D0350918E0360918F0370919003452B56
:10111000462B472B69F30097A105B10541F025E364
:101120002A95F1F700000197A109B109E1CF80915B
:101130008C030C9496031F920F920FB60F921124FA
:101140002F933F934F935F936F937F938F939F93CF
:10115000AF93BF93EF93FF9385EB93E00E9437012A
:10116000FF91EF91BF91AF919F918F917F916F917F
:101170005F914F913F912F910F900FBE0F901F9055
:1011800018951F920F920FB60F9211242F938F93E1
:101190009F93EF93FF93E091C503F091C603808185
:1011A000E091CB03F091CC0382FD1BC09081809134
:1011B000CE038F5F8F732091CF03821741F0E091B0
:1011C000CE03F0E0EB54FC4F958F8093CE03FF915C
:1011D000EF919F918F912F910F900FBE0F901F90C5
:1011E00018958081F4CF1F920F920FB60F921124A1
:1011F0002F933F938F939F93AF93BF938091B502AB
:101200009091B602A091B702B091B8023091B402A9
:1012100023E0230F2D3758F50196A11DB11D209312
:10122000B4028093B5029093B602A093B702B09334
:10123000B8028091B9029091BA02A091BB02B0911C
:10124000BC020196A11DB11D8093B9029093BA0210
:10125000A093BB02B093BC02BF91AF919F918F91BD
:101260003F912F910F900FBE0F901F90189526E879
:10127000230F0296A11DB11DD2CF1F920F920FB660
:101280000F9211242F933F934F935F936F937F930C
:101290008F939F93AF93BF93EF93FF938091B90088
:1012A000887F803609F44AC0F0F5883209F4A7C077
:1012B00018F5803109F49BC0B8F4882309F4F9C00B
:1012C000883009F494C0FF91EF91BF91AF919F9145
:1012D0008F917F916F915F914F913F912F910F90DF
:1012E0000FBE0F901F901895883109F488C0803286
:1012F00051F78093890314C0803409F49DC040F4F1
:101300008033B9F38833F9F68093890385ECB0C054
:10131000803509F485C0883509F496C0883499F67B
:101320000E946308D0CF883909F48CC038F588371B
:1013300029F050F4883611F0803729F683E0809345
:101340008B031092B30257C0883809F47BC08039F0
:1013500019F0803809F0B7CF8091B302803208F0DD
:1013600071C0E091B30281E08E0F8093B30280914F
:10137000BB00F0E0ED56FD4F80833DC0803B39F06F
:10138000E0F4803A09F479C0883A09F09CCF84E00F
:1013900080938B031092920210929102E091BF020F
:1013A000F091C00209958091910281110FC081E0F6
:1013B000809391021092710209C0803C09F4A6CF7B
:1013C000883C09F4A3CF883B09F07DCFE0919202DD
:1013D00081E08E0F80939202F0E0EF58FD4F808104
:1013E0008093BB00909192028091910229C08091DC
:1013F00066038093BB0085EC8093BC0064CF909122
:10140000880380918703981758F5E091880381E05D
:101410008E0F80938803F0E0E959FC4F8081E9CF7B
:10142000E091880381E08E0F809388038091BB0058
:10143000F0E0E959FC4F8083909188038091870305
:101440009817C8F285E8D8CFE091880381E08E0F25
:10145000809388038091BB00F0E0E959FC4F8083C2
:1014600080918A0381115CCF81E08093650384EAD7
:101470008093BC0010928B0326CF85EC8093BC0038
:1014800010928B038091B302803230F4E091B3026A
:10149000F0E0ED56FD4F10826091B30270E0E091F4
:1014A000BD02F091BE0283E992E009951092B30269
:1014B0000ACF1092890334CF1F920F920FB60F926A
:1014C00011242F933F934F935F936F937F938F9349
:1014D0009F93AF93BF93EF93FF93E091C502F09179
:1014E000C602309749F0A685B7858585968D91FF10
:1014F00014C09C918923A1F4FF91EF91BF91AF910A
:101500009F918F917F916F915F914F913F912F911B
:101510000F900FBE0F901F9018959C91892361F733
:10152000A389B4899C918589809589238C93868928
:1015300097890197F1F7608D718DA685B7855585DF
:1015400038E020E0CB010197F1F7822F90E09595EC
:101550008795282F4C91452309F02068315091F749
:10156000868D81FD20958091C40290E001968F7355
:1015700099273091C302381799F0A091C402B0E0C6
:10158000A05FBD4F2C938093C402828D938D0197F1
:10159000F1F7A389B4898C919589892B8C93ACCF71
:1015A000868D8160868FF1CF1F920F920FB60F92BA
:1015B00011248F939F9380915D0390915E03019618
:1015C00090935E0380935D039F918F910F900FBE68
:1015D0000F901F9018951092B8031092B70388EEE1
:1015E00093E0A0E0B0E08093B9039093BA03A09396
:1015F000BB03B093BC0324E231E03093B6032093E5
:10160000B50325EC30E03093C2032093C10324ECF2
:1016100030E03093C4032093C30320EC30E03093D8
:10162000C6032093C50321EC30E03093C803209318
:10163000C70322EC30E03093CA032093C90326ECA1
:1016400030E03093CC032093CB031092CE03109262
:10165000CF031092D0031092D10310925504109230
:1016600054048093560490935704A0935804B09365
:10167000590426E331E0309353042093520410922E
:101680000105109200052CE631E03093FF04209311
:10169000FE0427E22093020520E12093070522E0C3
:1016A00020930805109209051092E2041092E104BB
:1016B0008093E3049093E404A093E504B093E604DC
:1016C0008AE591E09093E0048093DF041092F604A1
:1016D0001092F5041092F8041092F7041092FA0494
:1016E0001092F9041092FC041092FB046091FD0426
:1016F0006E7F6D7F6093FD046695617081E0682761
:1017000083E00E941B0261E083E00E944D02E1EB56
:10171000F0E0E491E093EF04EDE9F0E0E491F0E033
:10172000EE0FFF1FE057FF4F859194919093F104C6
:101730008093F00460E082E00E944D028091FD04FD
:1017400081FD04C061E082E00E941B0282E0809380
:10175000EB04E0EBF0E0E491E093EC04ECE9F0E082
:10176000E491F0E0EE0FFF1FEA57FF4F859194914F
:101770009093EE048093ED041092CF041092D00465
:101780001092D1041092D2048AE090E09093D40495
:101790008093D3041092D50482E591E09093CE0417
:1017A0008093CD041092DE041092600410926404C1
:1017B000109263041092650488E491E090935F04B2
:1017C00080935E04EAE7F4E086EB94E010821482F2
:1017D0001382158236968E179F07C1F784E091E039
:1017E0009093C1048093C00480E091E09093C3047F
:1017F0008093C20484E08093C4048093C50488E08D
:1018000091E09093BF048093BE048AE090E09093AF
:10181000C7048093C60484EF91E09093C904809339
:10182000C8041092CC041092CB041092BA04109207
:10183000BB041092BC041092BD041092CA04089517
:10184000CF93DF9300D000D0CDB7DEB7789484B5C6
:10185000826084BD84B5816084BD85B5826085BDAC
:1018600085B5816085BD80916E00816080936E003A
:10187000109281008091810082608093810080912C
:1018800081008160809381008091800081608093DD
:1018900080008091B10084608093B1008091B0009D
:1018A00081608093B00080917A00846080937A0098
:1018B00080917A00826080937A0080917A008160C2
:1018C00080937A0080917A00806880937A001092E9
:1018D000C10062E085E00E944D0261E083E00E9469
:1018E0004D0260E083E00E941B021092C20210923F
:1018F000C102109292031092B4030E94780380EB0D
:1019000090E09093C0028093BF0281EB90E09093AF
:10191000BE028093BD0210920305809108058230BB
:1019200018F098E0909303058093060562E370E059
:1019300080E090E00E94B602609109058EEF94E08D
:101940000E94320568EE73E080E090E00E94B602EB
:1019500060E38EEF94E00E9431060BE416E4C801C8
:101960000197F1F760E38EEF94E00E943106C80121
:101970000197F1F760E38EEF94E00E94310683E572
:1019800092E00197F1F760E28EEF94E00E94310659
:101990008091030580620E944A0684E080930405DA
:1019A0008CE00E944A060E948A0612E01093050508
:1019B00086E00E944A0682E00E944A068BE39FE18D
:1019C0000197F1F70E94450560E080E00E945B0608
:1019D000E091C503F091C6031083E091C103F0913B
:1019E000C2031082E091C303F091C4038FEC8083A3
:1019F0001092CD03E091C903F091CA0386E0808381
:101A0000E091C703F091C803808180618083E091F9
:101A1000C703F091C803808188608083E091C70389
:101A2000F091C803808180688083E091C703F091C2
:101A3000C80380818F7D80831092FA041092F9048C
:101A40001092F8041092F7041092F6041092F50424
:101A500082E09DE09093FC048093FB049091EB0462
:101A6000963108F047C02FE636E03093F604209315
:101A7000F50420E03DE03093F8042093F70427EBD1
:101A800039E03093FA042093F9042091680084E04F
:101A9000983048F031E09E3008F430E081E001C039
:101AA000880F3A95EAF7822B809368002DE630E0A4
:101AB000983050F02BE630E09E3030F02CE630E0ED
:101AC000963110F030E020E03093F3042093F204DC
:101AD000292F30E0983008F027C181E001C0880F3D
:101AE0009A95EAF78093F4048091FB049091FC04AA
:101AF0000197F1F78091F9049091FA04892B49F14B
:101B0000E091C502F091C60224E0EF3DF20709F131
:101B1000309739F0A389B4899C9185898095892370
:101B20008C938091FD048E7F8093FD041092C402FB
:101B30001092C3028FED94E09093C6028093C50289
:101B4000E091F204F091F30480819091F404892BE8
:101B5000808362E084E00E944D0210926003109244
:101B60005F031092DC021092DB0262E085E00E94CB
:101B70004D0285E08093DE041092D5048DEC94E054
:101B80000E94FD05882329F08091D504836080930D
:101B9000D5040E94E8026093CF047093D004809330
:101BA000D1049093D20489E190E09093D40480937F
:101BB000D30461E082E00E945B0667E771E08EEF8C
:101BC00094E00E9461086EEE72E080E090E00E9476
:101BD000B6020E948A0661E08DE00E945B0661E920
:101BE00071E08EEF94E00E9461086EEE72E080E09A
:101BF00090E00E94B6021092090560E08EEF94E03A
:101C00000E9432051092CE021092CD021092CA02AA
:101C10001092C9021092D4021092D3028EED93E07A
:101C20009093CC028093CB021092C8021092C7020C
:101C300010925703109256031092EB021092EA0290
:101C40001092800010928100109285001092840002
:101C500088E09DE3909389008093880080918100C3
:101C600088608093810080918100856080938100ED
:101C700080916F00826080936F007894EE24E394EB
:101C8000F12CC7018E5E92409C838B83812C912C1A
:101C900054018394109262031092610380915F0358
:101CA00090916003892B11F40C94EE170E94450566
:101CB00010925E0310925D0380915F039091600328
:101CC000019709F04FC08091C9029091CA028034F7
:101CD000EFE19E070CF046C09093530380935203AC
:101CE0008091C9029091CA020996209152033091C5
:101CF0005303821793072CF10091C7021091C80279
:101D0000C8010E94A9060F5F1F4F1093C8020093DD
:101D1000C702682F85EB93E00E94B20080915203C6
:101D2000909153030196D8CF9E3040F4285031094A
:101D300081E001C0880F2A95EAF7D4CE2E503109F0
:101D4000F7CF60EA71E085EB93E00E9461080E94A2
:101D50004D088091C9029091CA020A969093CA02D6
:101D60008093C9028FED94E00E94C10518161906F0
:101D700064F480915F0390916003892B31F48FEDBF
:101D800094E00E94D90580935C0380915C038535C3
:101D900009F0B4C310925B0310925A0310925903D6
:101DA0001092580310925703109256031092550345
:101DB00010925403F0925303E092520300915203A5
:101DC0001091530302351105B4F48FED94E00E9495
:101DD000C1051816190644F48FED94E00E94D90548
:101DE000F801E251FD4F80830F5F1F4F10935303A3
:101DF00000935203E3CFF0925303E0925203009119
:101E000052031091530302351105B4F48FED94E0A1
:101E10000E94C1051816190644F48FED94E00E9443
:101E2000D905F801E251FD4F80830F5F1F4F1093DA
:101E3000530300935203E3CF8091EC029091ED02A3
:101E4000EFEEF2E0DF0121E030E050E040E06D91A4
:101E5000623031F44115510519F4C90141E050E0F7
:101E60002F5F3F4F2235310591F79093ED0280931C
:101E7000EC025093550340935403DC01A251BD4F33
:101E800011962C912A30E9F40B9690935B03809382
:101E90005A03F0925703E0925603809158039091B1
:101EA00059037EEEC72E72E0D72E23E0EE33F20701
:101EB000E1F021912130C9F78B819C818E0F9F1F0A
:101EC000F4CF2B3011F40C96E0CF2C3011F40D969A
:101ED000DCCF2D3011F40E96D8CF2E3011F40F96A2
:101EE000D4CF2F30D1F64096D0CF90935903809322
:101EF0005803F0925303E092520380915203909161
:101F0000530382359105ECF482519D4FFC016081B1
:101F1000062E000C770B40E150E085EB93E00E9429
:101F2000130862EA71E085EB93E00E9461088091FA
:101F3000520390915303019690935303809352035D
:101F4000DCCF0E944D0863EB71E085EB93E00E94CB
:101F5000610860915A0370915B034AE050E085EBA1
:101F600093E00E94130864EA71E085EB93E00E941D
:101F7000610860915803709159034AE050E085EB85
:101F800093E00E94130867EA71E085EB93E00E94FA
:101F900061084AE050E070E060E085EB93E00E9469
:101FA00013086AEA71E085EB93E00E946108609192
:101FB0005603709157034AE050E085EB93E00E948E
:101FC000130860EB71E085EB93E00E94610860917B
:101FD000EA027091EB024AE050E085EB93E00E9448
:101FE000130866EB71E085EB93E00E946108609155
:101FF000EC027091ED024AE050E085EB93E00E9424
:1020000013080E944D0800915A0310915B031016AB
:1020100011065CF5F801E251FD4FDF0119978C9133
:102020008093E00211968C918093E10211968C913D
:102030008093E20211968C918093E30211968C9129
:102040008093E40211968C918093E50211968C9115
:102050008093E60211968C918093E70211968C9101
:102060008093E80280818093E9021092DF0210924F
:10207000DE028091DE029091DF028034FFE19F0753
:102080000CF077C00E94A9069091E002891367C006
:102090008091DE029091DF0201960E94A906909144
:1020A000E10289135CC08091DE029091DF0202960A
:1020B0000E94A9069091E202891351C08091DE022C
:1020C0009091DF0203960E94A9069091E302891382
:1020D00046C08091DE029091DF0204960E94A9061C
:1020E0009091E40289133BC08091DE029091DF025F
:1020F00005960E94A9069091E502891330C080914F
:10210000DE029091DF0206960E94A9069091E602F7
:10211000891325C08091DE029091DF0207960E940C
:10212000A9069091E70289131AC08091DE0290916E
:10213000DF0208960E94A9069091E80289130FC059
:102140008091DE029091DF0209960E94A90690918B
:10215000E902891304C0F0926203E0926103809166
:10216000DE029091DF020A969093DF028093DE02F6
:1021700080CF60E080E00E945B06809161039091D7
:102180006203019709F0CAC08091560390915703EA
:10219000019709F0C3C00B5011091093530300932A
:1021A000520356E4752E6DE2662E80915A0390918B
:1021B0005B030091520310915303801791077CF148
:1021C00082519D4FFC013B9770820A97FC0160820F
:1021D0000E944505809104058D7F809304058860E9
:1021E0000E944A06F801E251FD4F608185EB93E0C1
:1021F0000E94B200E0915203F0915303E251FD4F6F
:1022000060818EEF94E00E94B20080915203909121
:10221000530301969093530380935203C6CF60E01B
:102220008DE00E945B066EE971E08EEF94E00E9403
:10223000610861E080E00E945B06E0915803F09144
:102240005903E251FD4F60818EEF94E00E94B2008D
:10225000E0915803F0915903E251FD4F61818EEFF7
:1022600094E00E94B2006FE28EEF94E00E94B20010
:10227000E0915803F0915903E251FD4F62818EEFD6
:1022800094E00E94B200E0915803F0915903E251AA
:10229000FD4F63818EEF94E00E94B2006DE28EEFFD
:1022A00094E00E94B200E0915803F0915903E2518A
:1022B000FD4F64818EEF94E00E94B200E0915803DC
:1022C000F0915903E251FD4F65818EEF94E00E9439
:1022D000B2006AE38EEF94E00E94B200E0915803EE
:1022E000F0915903E251FD4F66818EEF94E00E9418
:1022F000B200E0915803F0915903E251FD4F67811C
:102300008EEF94E00E94B2000E944D0860E083E0EE
:102310000E941B0210925E0310925D038091610384
:1023200090916203892B09F0CDC080915603909162
:102330005703019709F0C6C080915A0390915B033F
:102340000B97909353038093520332E4732E4DE224
:10235000642E80915A0390915B0300915203109177
:102360005303801791077CF182519D4FFC013B97ED
:1023700070820A97FC0160820E94450580910405E5
:102380008D7F8093040588600E944A06F801E2511F
:10239000FD4F608185EB93E00E94B200E091520313
:1023A000F0915303E251FD4F60818EEF94E00E9463
:1023B000B20080915203909153030196909353037E
:1023C00080935203C6CF60E08DE00E945B066EE909
:1023D00071E08EEF94E00E94610861E080E00E946D
:1023E0005B06E0915803F0915903E251FD4F608183
:1023F0008EEF94E00E94B200E0915803F0915903EF
:10240000E251FD4F61818EEF94E00E94B2006FE2D5
:102410008EEF94E00E94B200E0915803F0915903CE
:10242000E251FD4F62818EEF94E00E94B200E09194
:102430005803F0915903E251FD4F63818EEF94E010
:102440000E94B2006DE28EEF94E00E94B200E09133
:102450005803F0915903E251FD4F64818EEF94E0EF
:102460000E94B200E0915803F0915903E251FD4FF0
:1024700065818EEF94E00E94B2006AE38EEF94E0F3
:102480000E94B200E0915803F0915903E251FD4FD0
:1024900066818EEF94E00E94B200E0915803F091C3
:1024A0005903E251FD4F67818EEF94E00E94B20024
:1024B0000E944D0861E083E00E941B0210925E03BF
:1024C00010925D0380915C03FFEFCF1ADF0A20E4D6
:1024D000C21623E0D20621F0F601108280E0F4CF8C
:1024E00022E530E0309353032093520380935C0342
:1024F00068E671E080E090E00E94B60280915D03A2
:1025000090915E0384970CF180915F03909160033A
:10251000892BD9F41092090560E08EEF94E00E94B7
:10252000320560E083E00E941B020E948A0661E09F
:102530008DE00E945B0661E971E08EEF94E00E94FD
:10254000610810925E0310925D0381E08093CA04DB
:102550000E94E8020091BA041091BB042091BC04CF
:102560003091BD04AB01BC01401B510B620B730BDE
:102570008091C6049091C704B0E0A0E0841795074D
:10258000A607B70708F084C110E08091C4041817AB
:1025900060F4E091C004F091C104E10FF11D62E02C
:1025A00080810E944D021F5FF0CF312C8091C504C5
:1025B000381608F061C0C32CD12CE091C204F09110
:1025C000C304EC0DFD1D61E080810E944D02E0918D
:1025D000C204F091C304EC0DFD1D60E080810E94F7
:1025E0001B02D501C401032C04C0880F991FAA1F28
:1025F000BB1F0A94D2F72C013C0160947094212CEB
:102600008091C404281608F5022D10E0E091C00462
:10261000F091C104E00FF11F80810E94EF010C5F77
:102620001F4F000F111FF801E25AFB4F892B41F495
:102630008081918184299529918380832394E0CF9F
:102640008081918186219721F7CFE091C204F0919A
:10265000C304EC0DFD1D61E080810E941B0280918E
:10266000C2049091C304C80ED91E60E0F6018081B7
:102670000E944D0233949ACF0EE514E08AE994E06B
:102680006801F601278D30A1232B31F4148E2FEF32
:102690003FEF368F258F11A236E0C30ED11C8C156B
:1026A0009D0579F7712C8091C404781608F053C009
:1026B000612C472C512C440C551CC2018A599B4F4C
:1026C0002C012091C504621608F043C0F20160811C
:1026D0007181062C02C0769567950A94E2F7729E86
:1026E00090011124260D311DEEE5F4E080E0458DCA
:1026F000568D2417350709F49DC48F5F36968A30AE
:10270000B1F760FF24C0EEE5F4E090E080E0448D96
:10271000411118C0E091BE04F091BF04E20FF31F15
:10272000408156E0589FF001599FF00D1124E25A64
:10273000FB4F448F368F258F10A2178E61E00E94C9
:10274000F40205C0019636968A30910501F763942C
:10275000B8CF7394A8CF712CF80181A18111782E84
:102760000A5F1F4F0C151D05B9F70E94E802609320
:10277000BA047093BB048093BC049093BD0477208B
:1027800009F486C080917F04882309F481C00091F8
:102790007D0410917E040130110509F079C070901C
:1027A0007A04711079C08091DD02823409F0D4C0BE
:1027B00080917D0490917E04029709F0CDC0F09243
:1027C000D402E092D3028091D3029091D402019777
:1027D00009F0E3C00E94E8020091CF021091D002FC
:1027E0002091D1023091D202601B710B820B930BAE
:1027F000653C79408105910508F4CFC060E080E038
:102800000E945B060E948A066BEC71E08EEF94E0FA
:102810000E9461081092DF021092DE028091DE02B7
:102820009091DF020091D7021091D8028017910792
:102830000CF09DC06FEF0E94070660E080E00E94F0
:102840005B06C80164E670E00E94BC188091DE025D
:102850009091DF020E94BC186F5F7F4F4AE050E00A
:102860008EEF94E00E94130860E083E00E945B0614
:102870006BED71E08EEF94E00E9461088091DE02C2
:102880009091DF0201969093DF028093DE02C6CF23
:102890001092CA04712C87CF7092DD02F4E47F128B
:1028A00039C08091DB029091DC020097D9F483E07B
:1028B00090E09093600380935F030E948A0661E03A
:1028C0008DE00E945B0669EB71E08EEF94E00E9460
:1028D00061081093DC020093DB021092DA0210927E
:1028E000D90261CF019709F05ECF10926003109278
:1028F0005F030E948A0661E08DE00E945B066FEB39
:1029000071E08EEF94E00E9461081092DC02109258
:10291000DB02E3CF22E4721246CF109360030093F0
:102920005F030E948A0661E08BE00E945B0664EC14
:1029300071E08EEF94E00E9461080E9491078091FF
:102940006303909164039093D8028093D70210920E
:10295000D6021092D502C1CF0E94E8026093CF0246
:102960007093D0028093D1029093D2022CCF60E07A
:1029700080E00E945B060E948A066DED71E08EEF9A
:1029800094E00E9461081A821982CE0101960E9489
:10299000A4071092D4021092D30253E4751216C009
:1029A0008091D9029091DA02019781F482E090E05F
:1029B0009093600380935F0361E08BE00E945B066D
:1029C0006EEE71E08EEF94E00E9461088FED94E06E
:1029D0000E94C1051816190624F48FED94E00E9498
:1029E000D90581E4781273C00E948A06F0926003D0
:1029F000E0925F031092D8021092D7021092D60292
:102A00001092D50261E08BE00E945B0666EF71E0F8
:102A10008EEF94E00E946108F092DA02E092D9020F
:102A20000E94910780916303909164039093DF0269
:102A30008093DE0280915F0390916003892B09F0FF
:102A40008CC09AE2791289C083E00E94EF0101975D
:102A500009F083C0109253031092520380915203E5
:102A6000909153038A3091050CF077C080529D4FAE
:102A7000FC011081612F80916303909164030E9497
:102A80000706612F85EB93E00E94B20080916303FB
:102A9000909164030196909364038093630383E6AB
:102AA00093E00E94A40760E08DE00E945B066DEF5A
:102AB00071E08EEF94E00E94610880915203909142
:102AC000530301969093530380935203C7CF711021
:102AD000A7CF84EC99E09093C9048093C8048091B7
:102AE000DD02883509F06AC280915F03909160032E
:102AF000019709F063C280917D0490917E04029752
:102B000009F05CC28091D7029091D80220916303B2
:102B100030916403281739070CF44CC29093530387
:102B20008093520380915203909153032091D702D6
:102B30003091D802275F3F4F281739070CF4FBC1AB
:102B40000E94A906682F8EEF94E00E94B200809147
:102B50005203909153030196E1CF80915F039091CE
:102B60006003019709F0E7C0F4E47F1609F4E3C0BD
:102B70000091D5021091D60260E0802F0E945B0682
:102B800080910405982F9260909304058A600E94BA
:102B90004A061092CE021092CD020130110549F57D
:102BA00020916303309164038091CB029091CC0219
:102BB000281739074CF48091DE029091DF020996C4
:102BC000909364038093630306301105F1F520911F
:102BD0006303309164038091CB029091CC0228175B
:102BE00039070CF045C28091DE029091DF02049615
:102BF0003BC20230110589F42091630330916403D4
:102C00008091CB029091CC0228173907ECF6809185
:102C1000DE029091DF020896D3CF0330110509F050
:102C20000BC220916303309164038091CB02909199
:102C3000CC02281739074CF48091DE029091DF0214
:102C4000079690936403809363030730110531F571
:102C500020916303309164038091CB029091CC0268
:102C6000281739070CF004C28091DE029091DF0230
:102C70000396FAC120916303309164038091CB02E3
:102C80009091CC02281739074CF48091DE02909184
:102C9000DF02069690936403809363030830110566
:102CA000B1F00930110509F0E3C1209163033091BF
:102CB00064038091CB029091CC02281739070CF065
:102CC000D7C18091DE029091DF020196CDC12091A3
:102CD0006303309164038091CB029091CC0228175A
:102CE00039070CF0C5C18091DE029091DF02029697
:102CF000BBC1672D8EEF94E00E94B200672D8091DA
:102D0000DE029091DF020E9407068091DE02909120
:102D1000DF0201969093DF028093DE028091D5025C
:102D20009091D60201969093D6028093D5028EEDB3
:102D300092E00E94A4078091D9029091DA02019753
:102D400009F050C080915F0390916003029709F0F1
:102D500049C00091CD021091CE020A3011050CF04D
:102D600041C08AE27816F1F193E27916D9F1E3E4F1
:102D70007E16C1F18091DE029091DF02892B91F1E4
:102D80008091D7029091D8020A979093D8028093AD
:102D9000D70280910405982F9260909304058A6071
:102DA0000E944A0660E0802F0E945B06672D8EEF2E
:102DB00094E00E94B2000091D7021091D802672DD2
:102DC000C8010E940706055F1F4F1093D8020093A9
:102DD000D7028091CD029091CE0201969093CE02BF
:102DE0008093CD0280915F0390916003029709F078
:102DF00070CEF3E47F126DCE60E080E00E945B064F
:102E00008091D7029091D8020A97909353038093B0
:102E1000520300915203109153038091D702909175
:102E2000D802081719070CF054CE6FEFC8010E94A2
:102E30000706C8010E94A906682F8EEF94E00E9441
:102E4000B20080915203909153030196DECF2091FE
:102E5000D9023091DA022130310539F55AE275167E
:102E600009F433C1EAE0CE16D10408F42EC19093E0
:102E70005303809352038091520390915303209106
:102E8000D7023091D802275F3F4F28173907E4F067
:102E90000E94A906682F8EEF94E00E94B2008091F4
:102EA0005203909153030196E2CF232B09F00DC1F9
:102EB000FAE27F16E1F222E47216C9F23AE0C31692
:102EC000D10408F002C1D3CF62EA71E08EEF94E042
:102ED0000E94610860E08BE00E945B068091D7024F
:102EE0009091D8020A969093D8028093D7020AE074
:102EF00010E0B8010E94BC184AE050E08EEF94E068
:102F00000E94130861E080E00E945B0680916303E9
:102F1000909164034AE050E070E060E08A309105EF
:102F20002CF0B8010E94BC184AE050E08EEF94E00B
:102F30000E941308CAC062EA71E08EEF94E00E941A
:102F4000610860E08BE00E945B060091D70210915F
:102F5000D802065F1F4F1093D8020093D70268EC87
:102F600070E080E090E00E94B6028AE0C82ED12C8A
:102F7000C801B6010E94BC184AE050E08EEF94E010
:102F80000E94130861E080E00E945B068091630369
:102F9000909164034AE050E061E070E08A3091056E
:102FA0002CF0B6010E94BC184AE050E08EEF94E08D
:102FB0000E94130860E080E00E945B0680E090E0E1
:102FC000892B11F40C944A0E0E942301882311F4DA
:102FD0000C944A0E0E9400000C944A0E0E94910725
:102FE00085EB93E00E941701892B11F40C945C0E81
:102FF00085EB93E00E94F500282F082E000C330B80
:10300000205331092A30310558F7682F8091630326
:10301000909164030E94070680916303909164037A
:103020000196909364038093630383E693E00E9488
:10303000A407D6CF617083CB0430110509F41ACEF2
:103040000530110509F0C0CD209163033091640370
:103050008091CB029091CC02281739074CF48091D3
:10306000DE029091DF0205969093640380936303E0
:10307000C72C072C000CDD0820E3C21AD1083AE067
:10308000C316D10450F40A3011053CF48091D902E2
:103090009091DA02892B09F42CCE60E080E00E9446
:1030A0005B0683E693E00E94A4071092D60210927A
:1030B000D5028091D7029091D8022091630330917C
:1030C0006403281739070CF0C2CE60E080E00E944C
:1030D0005B068091D7029091D80280349F410CF416
:1030E0002ACE60E080E00E945B0661E072E08EEF35
:1030F00094E00E94610860E08EE00E945B066091AF
:103100006303709164034AE050E08EEF94E00E9404
:10311000130811CE8AE591E09093E0048093DF04D8
:103120008091C5029091C6028F5D944071F4E09148
:10313000F204F091F30490818091F4048095892346
:1031400080831092C6021092C5020895F999FECFAD
:1031500092BD81BDF89A992780B50895262FF999D7
:10316000FECF1FBA92BD81BD20BD0FB6F894FA9A6A
:10317000F99A0FBE0196089597FB072E16F4009456
:1031800007D077FD09D00E94F21807FC05D03EF465
:10319000909581959F4F0895709561957F4F089503
:1031A000A1E21A2EAA1BBB1BFD010DC0AA1FBB1F4B
:1031B000EE1FFF1FA217B307E407F50720F0A21BBD
:1031C000B30BE40BF50B661F771F881F991F1A942A
:1031D00069F760957095809590959B01AC01BD0154
:1031E000CF010895AA1BBB1B51E107C0AA1FBB1F3B
:1031F000A617B70710F0A61BB70B881F991F5A9583
:10320000A9F780959095BC01CD010895EE0FFF1FA1
:103210000590F491E02D099481E090E0F8940C94ED
:10322000111910E0C2E6D0E004C0FE010E940619A8
:0C3230002196C336D107C9F7F894FFCFF0
:10323C000C0B0A0509080706313233413435364286
:10324C00373839432A3058440000400014005400E9
:10325C00000000005901B900E600A6011701F500B5
:10326C00090100000000FE04D104FA05A704CA04F9
:10327C00B704A804000000008902490218020000EB
:10328C000000FD058D02000000006505B900FA057F
:10329C00A704C105D9054D05000000009206B90030
:1032AC00FA0550030D0A00332E38464630333235BA
:1032BC0032322E31202020202020202020202020BF
:1032CC00004F4E20202020202020202020202020B5
:1032DC0020002D004C3D00643D00636964593D00A5
:1032EC006369644E3D00483D004F46462020004F28
:1032FC004E20200050726F672020002020202020BC
:10330C002020436C656172696E670025004D656D08
:10331C006F727920436C656172656420200045648E
:10332C006974202020004C6973742020004D454D99
:10333C00004D656D6F72792046756C6C20202000F5
:00000001FF
